:020000041000EA
:1000000000B5324B212058609868022188439860DF
:10001000D860186158612E4B002199600221596106
:100020000121F02299502B49196001219960352056
:1000300000F044F80222904214D00621196600F024
:1000400034F8196E01211966002018661A6600F04E
:100050002CF8196E196E196E052000F02FF8012189
:100060000842F9D1002199601B49196000215960AB
:100070001A491B48016001219960EB211966A021F2
:10008000196600F012F800219960164914480160C1
:100090000121996001BC002800D000471248134993
:1000A000086003C880F30888084703B5996A0420EC
:1000B0000142FBD001200142F8D103BD02B5186610
:1000C0001866FFF7F2FF186E186E02BD00000240BE
:1000D000000000180000070000035F00212200005C
:1000E000F4000018222000A00001001008ED00E03C
:1000F00000000000000000000000000074B24E7A12
:1001000000200420F7010010C3010010C5010010F9
:10011000C1010010C1010010C1010010C101001097
:10012000C1010010C1010010C1010010C701001081
:10013000C1010010C1010010C9010010CB01001065
:10014000CD010010CD010010CD010010CD01001037
:10015000CD010010CD010010CD010010CD01001027
:10016000CD010010CD010010CD010010CD01001017
:10017000CD010010CD010010CD010010CD01001007
:10018000CD010010CD010010CD010010CD010010F7
:10019000CD010010CD010010CD010010CD010010E7
:1001A000CD010010CD010010CD010010CD010010D7
:1001B000CD010010CD010010CD010010CD010010C7
:1001C00000BE00BE00BE00BE00BE00BE00F04BF888
:1001D000103800BEF2EB8871F85D01101C5E011052
:1001E0003402001090A31AE700202149086006C8D5
:1001F00081F3088810471F48006800282FD10DA4FC
:100200000ECC002902D000F012F8F9E71A491B4A77
:10021000002000E001C19142FCD1194988471949E9
:1002200088471949884700BEFDE701C901C29A42C3
:10023000FBD370471C5E0110C0000020100E002090
:100240006C6B011000000420000004206C6B011096
:1002500000100420001004200000000070470B482C
:1002600005F05CFB0047EFF30580C0B2704700006B
:1002700008ED00E0000000D0100E002098310020B2
:10028000F53B0010C51A0010193D0010575600002C
:1002900006005250ABB3605300FB001006005250F2
:1002A000861C030210FB0010060052505422A29D2F
:1002B0002CFB001005005250DE65F4686C6B0110D9
:1002C000F8B5C0460448054B10B5834203D0044B33
:1002D000002B00D0984710BD100E0020100E0020FB
:1002E0000000000006480749091A8B10C90FC918F9
:1002F00010B5491003D0044B002B00D0984710BD17
:10030000100E0020100E00200000000010B5074C59
:100310002378002B09D1FFF7D5FF054B002B02D026
:10032000044800E000BF0123237010BDF01400203A
:100330000000000060F40010054B10B5002B03D046
:100340000449054800E000BFFFF7CCFF10BDC046E0
:1003500000000000F414002060F4001084B0F0B538
:10036000D6464F464646C0B54D4CAEB0369008A86E
:100370003993379138920CF031FA08A9982220006D
:1003800006F0F6FEA246474C08A80CF027FA08A98A
:100390009822200006F0ECFEA146434C08A80CF081
:1003A0001DFA08A99822200006F0E2FE3F4C08A89A
:1003B0000CF014FA08A99822200006F0D9FE3C4C53
:1003C00008A80CF00BFA08A99822200006F0D0FE2D
:1003D000384C08A80CF002FA982208A9200006F070
:1003E000C7FE3A9806F0FEFD334DA046334C06009A
:1003F0003D980F000694079506F0F4FD04900591D2
:100400003C9806F0EFFD029003913B9806F0EAFD60
:1004100032003B000090019150460CF05BFC369896
:1004200006F0E0FD060039980F000694079506F0E7
:10043000D9FD04900591389806F0D4FD02900391FF
:10044000379806F0CFFD32003B00009001914846FE
:100450000CF040FC4A9806F0C5FD06004D980F00D0
:100460000694079506F0BEFD049005914C9806F0A1
:10047000B9FD029003914B9806F0B4FD3200009054
:1004800001913B0040460CF025FC00202EB0E0BC62
:10049000BA46B146A846F0BC08BC04B01847C046EE
:1004A000F00F002050120020100E002088100020B5
:1004B00020110020B8110020E17AA43F7B14AE4740
:1004C00084B070B506920490059106980B99079335
:1004D00006F0FBFC0C99061C079806F0F6FC06F0EB
:1004E00081FD02000B0012480E9D0CF08BFA05F006
:1004F000BFFD041C301C06F075FD02000B000D480A
:100500000CF080FA220A6A73230E220CEB732C7310
:10051000AA7305F0ADFD030A6B72030228721B0E6D
:10052000000EE872AB72002070BC08BC04B0184723
:1005300050120020F00F002084B0F0B589B0109266
:100540000E90109811930F9106F04CFD00900191C0
:10055000149F7A7C3B7C12021A43BB7CFE7C1B04FA
:10056000134336061E43301C06F03CFD04000D000C
:1005700005F094FD02900391119806F033FD04906C
:1005800005912000290005F09FFD029A039B0400BD
:100590000D000098019905F09AFC22002B000690AE
:1005A00007910498059905F092FC02000B0006984B
:1005B000079905F05CFC05F05BFD139906F09FFCC4
:1005C0007A7A3B7A12021A43BB7AF97A1B041343F4
:1005D0000906194306F07CFC030A38727B72030C8F
:1005E000000E2200BB72F8722B000098019905F0F2
:1005F0006EFC049A059B04000D000298039905F017
:1006000066FC02000B002000290005F039FC05F013
:100610002FFD139906F073FC7A7B3B7B12021A4381
:10062000BB7BF97B1B0413430906194306F050FCFE
:10063000030A38737B73030C000EBB731299F873B3
:10064000139806F05CFC311C06F042FC061C06F018
:10065000C9FC2A4A2A4B04000D0005F091FC002831
:1006600043D0264A274B2000290005F000FC05F066
:10067000FFFC061C06F0B6FC204A214B04000D00CE
:1006800005F07EFC0028ECD1330A7B7433023E7403
:100690001B0E360EBB74FE7420002900174A1A4B3D
:1006A00005F05EFC00281AD0144A164B20002900E1
:1006B00005F0E6FB05F0DCFC061C06F093FC0F4A97
:1006C000114B04000D0005F04BFC0028ECD1330A5F
:1006D0007B7433023E741B0E360EBB74FE74002016
:1006E00009B0F0BC08BC04B01847330A3E747B74F0
:1006F000330C360EBB74FE74CEE7C046182D44543E
:10070000FB210940FB211940FB2109C0F0B5DE4661
:100710004E4645465746E0B51D000023C3B00400D1
:10072000FC22002103A8029306F01CFD28000DF016
:10073000E9FE232206002D2102A806F013FD384908
:1007400002AA200005F0A4F820000DF0DBFE222311
:10075000344A9B1B0092904633492A00201805F02A
:1007600097F80C239B46314B4C9E9A460923994699
:10077000B34420000DF0C6FE80CE050038000DF019
:10078000C1FE42464B4600921B1A3A005146601980
:1007900005F07EF8B345ECD120000DF0B3FE032543
:1007A000234B032219002018994606F0E1FC214F43
:1007B000214E20000DF0A6FE013D3A003100201828
:1007C00005F066F8002DF4D120000DF09BFE032209
:1007D0004946201806F0CCFC0C2398464D9E174F36
:1007E000B04420000DF08EFE050001CE06F0FAFBAD
:1007F00002000B006019390005F04AF84645F0D1B7
:1008000020000DF07FFE03224946201806F0B0FCC0
:1008100043B0F0BCBB46B246A946A046F0BDC046B8
:1008200060F400100459011068F400107CF400100A
:1008300078F4001090F400109CF40010A0F4001064
:1008400084B0F0B5DE4657464E464546E0B5924C7C
:10085000A544AF24E4006C442060904868440160E3
:10086000B021C90069440A608D4A8E486A44136009
:1008700006F01CFF8C4B1B78002B00D107E18B4B43
:100880008B481A685B6806F011FF8A4B02A91A00B0
:1008900031CA31C10D0051CA51C10F0051CA51C1F5
:1008A0000A00243313CB13C2834B00216B449A6894
:1008B00055A80E921A690F929B69FF22109300238C
:1008C0009200549306F04EFCFC22002115A806F07D
:1008D00049FC23222D2114A806F044FC774B14AACE
:1008E000190054A89B4604F0D3FF54A80DF00AFE4B
:1008F00054AB9C46724B734A0093984672491A2334
:10090000604404F0C5FF714B9A460923994654A8E8
:100910000DF0F8FD40CD040030000DF0F3FD4B4626
:1009200054AA1B1A1019424651460092320004F094
:10093000AFFFAF42EBD154A80DF0E4FD54AB9C46A1
:10094000634E03223100604406F012FC614B032425
:100950009846614D54A80DF0D5FD54AB9C464246D7
:1009600029006044013C04F093FF002CF2D154A80C
:100970000DF0C8FD54AB9C4603223100604406F0E4
:10098000F7FB564B0EAC984611AD54A80DF0BAFDCE
:1009900054AB9C4604CC4146604404F079FFA54228
:1009A000F3D154A80DF0AEFD54AB9C460322604435
:1009B000310006F0DDFB4A4C54A9200006F076FE1B
:1009C000A8236A4600265B00D2181670454A464B9B
:1009D0006A44019202AA009254A803220121FFF75F
:1009E00095FE54A9200006F061FEA8236A465B002C
:1009F000D2181670C222D2006A4401920BAA3B4B55
:100A0000009254A803220121FFF780FE54A9200080
:100A100006F04CFEA8236A465B00D2181670344AD2
:100A200054A86A441300926801211192DA681B6984
:100A30006A60AB6003222F4B01950097FFF766FEBB
:100A400054A9200006F032FEA8236A465B00D318A2
:100A50000021FC2215A81E7006F084FB23222D2104
:100A600014A806F07FFB594614AA54A804F010FFFE
:100A700054A9214806F01AFE204B9D44F0BCBB4609
:100A8000B246A946A046F0BC08BC04B018471C48B2
:100A900006F056FCF9E6C046ACFAFFFF7C05000004
:100AA00084050000B4F4001092310020D80F00201B
:100AB000BCF4001094F50010C405000060F40010B0
:100AC0000459011010F5001068F400107CF40010B7
:100AD00078F4001090F400109CF40010ACF40010B6
:100AE0001CF50010A405000020F5001024F50010EE
:100AF000F40500002CF5001038F500105405000036
:100B0000E0F40010437A027A1B021343827A0F4901
:100B100012041A43C37A1B0613438B60437B027B88
:100B20001B021343827B12041A43C37B1B0613432D
:100B3000CB60437C027C1B021343827C12041A4369
:100B4000C37C1B0613430B617047C046DC2E00209C
:100B5000054B01001422180010B506F009FB032212
:100B6000024B1A6010BDC046042F0020142900203B
:100B7000054B01001422180010B506F0F9FA012205
:100B8000024B1A6010BDC046C82E00201429002058
:100B9000054B01001422180010B506F0E9FA0022F6
:100BA000024B1A6010BDC046A02E00201429002060
:100BB000030010B508004C22190006F0D9FA0120F4
:100BC00010BDC046030010B508001422190006F03D
:100BD000CFFA012010BDC046030010B50800302236
:100BE000190006F0C5FA012010BDC046030010B57B
:100BF00008000822190006F0BBFA012010BDC0460B
:100C0000F8B5040002F0A6FC06000F00104B114DD1
:100C10001E605F606078217800020843A1780904B3
:100C20000143E07800060843020060792179000260
:100C30000843A17909040143E07900060843030051
:100C4000921BBB412A606B600122034B1A70F8BDF6
:100C5000D00F0020E81400209231002070B505006C
:100C60000020461CF300E9184A78EB5C12021A4394
:100C70008B780C791B041343CA7812061A434B79FC
:100C80001B0223438C7924041C43CB791B0623438A
:100C90000AF00EF93000032EE3D170BD030010B549
:100CA00008001422190006F063FA012010BDC046A6
:100CB000030010B508001422190006F059FA0120AB
:100CC00010BDC046030010B508000822190006F048
:100CD0004FFA012010BDC046030010B508001422D1
:100CE000190006F045FA012010BDC046030010B5FA
:100CF00008001422190006F03BFA012010BDC0467E
:100D0000030010B508003022190006F031FA012066
:100D100010BDC046030010B508004C22190006F0B3
:100D200027FA012010BDC046030010B508001422A8
:100D3000190006F01DFA012010BDC046030010B5D1
:100D400008001422190006F013FA012010BDC04655
:100D5000030010B508001422190006F009FA01205A
:100D600010BDC046F0B5DE4657464E464546E0B596
:100D7000364987B00091364B0821364AC9200CF01D
:100D8000BBFB3549354B364A0091D3201421002452
:100D90009B4692460CF0B0FB324B334A9946904644
:100DA0003249DE20009130210CF0A6FB3049314B56
:100DB000314A0091E6201421039304920CF09CFB2D
:100DC0002E4D2F4B2F4A009314212B00E720059224
:100DD0000CF092FB2C4F2D4E2D4B32000093142122
:100DE0003B00D6200CF088FB5B4652461421009451
:100DF000D2200CF081FB4C21264B274A0094DC20AA
:100E00000CF07AFB4B46424630210094DD200CF07A
:100E100073FB3B00320014210094EA200CF06CFBC1
:100E20002B00059A14210094E8200CF065FB142196
:100E3000039B049A0094E9200CF05EFB07B0F0BC21
:100E4000BB46B246A946A046F0BDC046010C001004
:100E5000C50C0010ED0B0010050B0010ED0C001080
:100E6000D90C0010010D0010D90B00105D0C001002
:100E7000910B00103D0D0010290D00109D0C00106D
:100E8000710B0010510D0010B10C0010C50B0010BB
:100E9000510B0010150D0010B10B001010B50A48D1
:100EA00006F04EFA0CF0ACFA0CF0B6FCFFF75AFF65
:100EB000064806F045FA064809F02CFAFA204000E8
:100EC00002F05CFA002010BDC4F50010F0F500102F
:100ED000F5D60010F0B5DE4657464E464546E0B51D
:100EE00095B002F037FB05000E00FD4B1A685B68F9
:100EF000AD185E41FB4BFC4A9946FF231C00494656
:100F0000156056600A922A002C400B940C702F0A30
:100F10002C003500160C1F401E404F708E70110EB5
:100F20008846089409951D0049464046099AC870AC
:100F30001540AC460D71089C099D2C0C2A0A1A40DC
:100F400023404A718B7109990C970D0E4946E74F62
:100F5000CD7139780D958A46797809028B465146CC
:100F6000584601438B46B97809048A46594650468B
:100F700001438A46F97809068B4651465846014393
:100F80000C0039798A46797909028B4651465846D0
:100F900001438B46B97909048A46594650460143B4
:100FA0008A46F97909068B465146584601430D0099
:100FB00008980999001BA9410B9C3C700C9CBB71C3
:100FC0007C704446FC7064462C230D9D3C712D249E
:100FD000BE702F26FD712E25F854030A3B55030CD5
:100FE000000EB85501207B557A7109F031FF020AD5
:100FF000C3177A74020C3874BA74000E1A0AF874A3
:101000003B757A7501201A0C1B0EBA75FB7509F039
:10101000C7FE2421030A083C7854083D3B55030CC5
:101020007B552723000EF85400209B4609F010FF43
:10103000020AC3177A72020C3872BA72000E1A0AC8
:10104000F8723B737A7300201A0C1B0EBA73FB7391
:1010500009F0A6FE20232121F8549C46030A7B5464
:10106000AA46030C050022200A9A3B5402312B0E9B
:101070007B54136852689E4C16000D921A0A0E9209
:1010800062701A0C0C9323701092A2701A0E330A1D
:101090001292E2702671320E0F936371330C954EEB
:1010A0001392E271F2681193A371130A22726372B0
:1010B000130C120EE2723269A372130A2273637365
:1010C000130C120EE2737269A373130A0B9222744B
:1010D0006374130C120EE2743268A374130A22753F
:1010E0006375130C120EE2757268A375130A2276EB
:1010F0006376130C120EE276B268A376130A637756
:10110000130CA37763462277120EE277B269089632
:10111000E254130A9C4621236646E654130C2354DA
:10112000089B120E6254DA6953460131625403304F
:10113000110A2154110CE1545B462821120EE2548D
:10114000089B06001A6A6254100A01316054100CA0
:10115000013160542D20120E013162545A6B01315D
:101160006254110A2154110C013021542F21120E06
:1011700062549A6B01316254100A01316054100CB0
:1011800001316054120E01316254DA6B0131625444
:10119000100A01316054100C01316054120E0131FB
:1011A00062545A6A01316254100A01316054100CC1
:1011B00001316054120E013162549A6A0131625455
:1011C000100A01316054100C01316054120E0131CB
:1011D0006254DA6A01316254100A01316054100C11
:1011E00001316054120E0131625444221B6BA3542E
:1011F000190A0132A154190C0132A1541B0E0132FB
:10120000A3542423BA5D5646FB5C12021A43BB5D0D
:101210005E461B0413432D222C21BE5D36061E4361
:101220000896BA5C7B5C12021A432E230331FB5CE6
:10123000785C1B0413430006184305F0ABFE011C49
:101240002D4805F048FE2D4B061CD8689B4605F03E
:10125000A1FE311C05F053FE8046280005F09AFEE1
:10126000011C404605F04BFE254B020A19005A723C
:10127000020C9A7218729A46030ECB725B46051CDA
:10128000186905F087FE311C05F039FE061C089828
:1012900005F080FE011C301C05F031FE5146020AAB
:1012A000030E4A73020C8A73CB73061C0873011C6D
:1012B000281C05F00AFE05F095FE124A124B04F0B8
:1012C00006FE0022114B04F002FE04F0D1FE4B4654
:1012D00049461872030A4B72030C8B7218E0C04621
:1012E000E8140020F02E0020D80F0020902D0020C0
:1012F000C02D0020142E002070C6D144A02F002045
:10130000B42E00207BBDFBE3BD6AA53F0000E03F9B
:101310008023000E1B06C872E818311C05F0D5FDAD
:1013200005F060FEC04AC14B04F0D1FDC04AC14B7C
:1013300004F0AFFD04F09CFE0B9E011C051C301C4C
:1013400005F0C3FD4000BC49400805F01DFE002823
:1013500000D0351C4B464A461D742B0A53742B0C87
:101360002D0E9374D5740C9BB44D49462B700E9B77
:1013700068466B70109BAB70129BEB700D9B2B71D2
:101380000F9B6B71119BAB71139BEB71AC4B029577
:1013900001931378527812021A434B469B781B0430
:1013A00013434A46D27812061A434B4608924A79AA
:1013B0001B7912021A438B791B041343CA79120654
:1013C0001A4390460B7A4A7ACE7B12021A438B7AE2
:1013D00036061B041343CA7A12061A430B924A7B41
:1013E0000B7B12021A438B7B10311B0413431E43E9
:1013F000042205F0BDFE3300414608980B9AFFF722
:101400009BF8904B0B931B78002B76D08E4A136879
:10141000012B00D191E0032B00D121E100230A9997
:1014200013608A4A0B788A4E13704B780892537077
:101430008B789370CB78D3700B7913714B79537190
:101440008B799371CB79D371727B337B12021A4300
:10145000B37B1B041343F27B12061A430A920A99C8
:10146000012009F051FA737B327B1B021343B27BDC
:10147000089912041A43F37B00201B0613431A0A2F
:101480000B734A731A0C1B0E8A73CB73727A337AFE
:1014900012021A43B37AF17A1B0413430906194363
:1014A00009F032FA737A327A1B021343B27A3900A6
:1014B00012041A43F37A089E1B0613431A0A727227
:1014C0001A02120E3372DD201B0EB272F3720CF090
:1014D000FBF82900D2200CF0F7F82100DC200CF0FA
:1014E000F3F84946EA200CF0EFF85146E8200CF0FA
:1014F000EBF83100E9200CF0E7F802F02BF8554B3F
:101500001A685B68801A994100290AD1524B9842A7
:1015100007D8012015B0F0BCBB46B246A946A0468C
:10152000F0BD0021002009F0EFF90021012009F0B1
:10153000EBF900230B9A1370EBE70A99434A0B78F7
:10154000089213704B7853708B789370CB78D3706C
:101550000B7913714B7953718B799371CB7900218E
:10156000D3713E4B98464246527B1B7B12021A4374
:1015700043469B7B1B0413434246D67B36061E43E1
:10158000301C05F001FD002837D10021301C05F08A
:10159000E5FC002800D088E100230A932C4E1A0AAB
:1015A00072731A02120E3373B2731B0E4246F37338
:1015B0004346527A1B7A12021A4343469B7A002111
:1015C0001B0413434246D27A12061A43101C90465B
:1015D00005F0DAFC00281CD10021404605F0BEFCD5
:1015E000002800D057E10020030A73720302307212
:1015F0001B0E000EB372F07231E75B46301CD969E6
:1016000005F07DFC5B46996A05F062FC0A90031CBC
:10161000C4E75B464046996905F071FC5B46596A30
:1016200005F056FCE0E7C0467BBDFBE3BD6AA53F85
:10163000ADA3AA09A2EEC33FCDCCCC3DDC2E002049
:101640000AD7233D92310020142900208C2E00203F
:10165000A02E0020D00F002040420F00C82E0020F6
:10166000A34B597A1A7A090211439A7ADE7A120444
:101670000A433606597C16431A7C090211439A7CA8
:10168000D87C12040A430006104305F0ABFC994ACB
:10169000994B04F01CFC08900991301C05F0A2FC49
:1016A000089A099B04F0E3FB944A954B04F0F1FB84
:1016B00004F0DEFC9349030ECB7280238846020AB5
:1016C0001B064A72020C0C9008728A72F01805F020
:1016D00089FC089A099B04F0CAFB884A884B04F0ED
:1016E000D8FB04F0C5FC4246061C1073020A4046B3
:1016F000330EC3735B464273320C8273186805F075
:1017000049FC0C9905F0FBFB5B460D90586805F011
:1017100041FC311C05F0F3FB7B4A0C9008920A99BE
:101720007A4E0B7801A813704B7853708B789370B6
:10173000CB78D3700B7913714B7953718B7993718B
:10174000CB795146D3711422069605F011FD42461D
:10175000434652781B7812021A4343469B7841460F
:101760001B0413434246D278684612061A43434686
:101770000A924A791B7912021A438B791B0413438C
:10178000CA7912061A430E924A7A0B7A12021A4347
:101790008B7A1B041343CA7A12061A430F924A7BB0
:1017A0000B7B12021A438B7B1B041343CA7B12066A
:1017B000110019434346103304221091190005F01B
:1017C000D7FC0E990F9A109B0A98FEF779FE5B469C
:1017D000586805F0DFFB727B337B12021A43B37B40
:1017E000F17B1B0413430906194305F088FB5B4694
:1017F0008046186805F0CEFB727A337A12021A43DB
:10180000B37AF17A1B0413430906194305F077FBF9
:1018100000210E900C9805F0B7FB002825D100217F
:101820000C9805F09BFB0021002855D1404605F09F
:101830004FFB020A030E7273F37302020D9B120E2A
:101840000A9030730021B273181C984605F09CFB77
:10185000002815D100210D9805F080FB00210028FB
:101860002FD10E9805F034FBBEE65B460C98D96983
:1018700005F045FB5B46996A05F02AFB011CD5E79C
:101880005B464046996905F03AFB5B46596A05F0AC
:101890001FFB011CE5E75B464046196B05F02FFB7B
:1018A0005B46D96B05F014FB9EE65B46301C596B1A
:1018B00005F025FB5B46196C05F00AFB0A90031C3A
:1018C0006CE65B460D98196B05F019FB5B46D96B0E
:1018D00005F0FEFA011CC4E75B460C98596B05F055
:1018E0000EFB5B46196C05F0F3FA011C9EE7C0463F
:1018F000042F0020ADA3AA09A2EEB33F7BBDFBE3FA
:10190000BD6AA53FC82E00208C2E0020A02E0020EE
:1019100000B585B00E4803AB02AA01A900F010FA89
:10192000002803D10B480A4902F0F8F9039A0299FA
:10193000019800F0C9F905F0C5FEFA20400001F059
:101940001DFD054805F0FCFC002005B000BDC046AB
:1019500048E8010024F6001010F60010FA2010B537
:10196000800082B001F00AFD174805F0E9FC002074
:1019700008F06EFF012008F06BFF144805F0E0FC52
:1019800009F070F8124805F0DBFC192000F076FC35
:10199000D02380220F4C1B0692045A62684609F03D
:1019A0007DFC69460822200005F0E2FBC8230A48B6
:1019B000237005F0C5FC06CC084809F0C7FC09F007
:1019C000ABFA002002B010BD58F6001074F60010FB
:1019D00090F600100C2E0020ACF60010142E002003
:1019E000F0B5040085B08368426801682F4805F0AF
:1019F0005DFE63692269E1682D4805F057FEA06924
:101A000005F0F0FA0600206A0F0005F0EBFA0290EC
:101A10000391E06905F0E6FA264D32003B000090A4
:101A20000191280005F042FE606A05F0DBFA06002D
:101A3000E06A0F0005F0D6FA02900391A06A05F063
:101A4000D1FA1D4D32003B0000900191280005F0B5
:101A50002DFE206B05F0C6FA0600A06B0F0005F006
:101A6000C1FA02900391606B05F0BCFA134D32008D
:101A70003B0000900191280005F018FEE06B05F096
:101A8000B1FA0600606C0F0005F0ACFA0290039109
:101A9000206C05F0A7FA0A4D0090019132003B003E
:101AA000280005F003FE05B0F0BDC046C0F60010EA
:101AB000DCF60010F8F6001014F7001034F70010F0
:101AC00050F70010F0B5DE464E4645465746E0B5A5
:101AD000694CC9B0200005F033FC6849684805F03E
:101AE000E5FD200005F02CFCFFF712FFFFF736FFA5
:101AF000FFF7D4F9634C48212200002009F04EFA88
:101B0000614E5822002131A805F02CFB6068309608
:101B100004F04EFA5D4A5E4B04F0D9F904F0A8FADD
:101B20005C4D329020683395349604F041FA574A60
:101B3000574B04F0CCF904F09BFAFD2350229B058F
:101B4000369034A9684644933795479505F010FBC5
:101B50003199329A339B3098FEF700FC0223012220
:101B60000021200009F0A6FD002800DA7BE04A48A9
:101B700001F004FC2000FFF733FF484805F0E0FBCC
:101B800001F09CF92AAB029300230193444B454A90
:101B90000093002301F064FA434805F0D1FB434B66
:101BA000434C994601234A461370424B9B4620AB57
:101BB0009A46414B27931BAB2893404B29930FAB7D
:101BC000269314225946504605F0D2FA142227993A
:101BD000289805F0CDFA30222999269805F0C8FA00
:101BE0006278237812021A43A378E7791B0413431F
:101BF000E2783F0612061A43904662792379120270
:101C00001A43A379E67A1B041343627A1F43237AAB
:101C100012021A43A37A36061B041343627B1E4347
:101C2000237B12021A43A37BE57B1B0413432D067F
:101C30003C2223491D43684605F09AFA2B00404692
:101C400039003200FEF7FCFDC82001F097FB4B463F
:101C50001B78002BB5D1002049B0F0BCBB46B24682
:101C6000A946A046F0BD174B0100180005F01EFD67
:101C700001204042F0E7C04670F7001094F70010D2
:101C80009CF70010A02F0020B81E853E9A999999C4
:101C90009999993F0AD7233EB80B0000ECF7001042
:101CA000D50E0010409C000004F800109631002072
:101CB000C02D0020B42E0020DC2E0020902D00200E
:101CC000D02D0020BCF70010F0B583B005000E0049
:101CD000140000F083FB002801D003B0F0BD154FC5
:101CE00001223B0001210097053002F035F8330056
:101CF0002A0000940121104802F016FA2100280061
:101D0000714303F065FE04000C4B00220093022196
:101D1000042002F021F82300002201210094052074
:101D200002F01AF83B00022200210097062002F080
:101D300013F8D2E7006CDC0200800240001BB70001
:101D4000F0B5DE4657464E464546E0B5070083B03F
:101D50000420924689469B4602F0E0F9FA21890068
:101D600003F036FE3223FF3300935346C8468246C3
:101D700086003618B6010193724B734AF3189342EA
:101D800008D95246009BB61A013B0093002BF3D1B1
:101D900000206EE03121300003F01AFE87426FD040
:101DA00007256C1EA1464C466C433000210003F011
:101DB0000FFE87424AD0AB1E9946022D00D1B1E0FA
:101DC000641B2100300003F003FE874266D0EB1E47
:101DD0009946032D68D0641B2100300003F0F8FD04
:101DE000874269D02B1F9946042D6BD0641B2100BC
:101DF000300003F0EDFD87426FD06B1F9946052D33
:101E000000D171E0641B2100300003F0E1FD874246
:101E100000D171E0062D00D173E03000E11F03F026
:101E2000D7FDB84200D177E02421300006252424D4
:101E300003F0CEFD874225D0052399464C466C43DE
:101E40003000210003F0C4FD8742B4D10029B2D193
:101E5000019B2C009A464D46C1464B467201921B8F
:101E600092009219D2001A6053461C605B46012012
:101E70001D6003B0F0BCBB46B246A946A046F0BD0B
:101E8000312407252100300003F0A2FD002900D0F5
:101E900087E7019B2C00C1469A46DEE70029D7D090
:101EA000EB1E9946032D96D102250424B3089F42C8
:101EB000E8D00123994676E70029C9D02B1F99461F
:101EC000042D93D1092130000325092403F080FD5E
:101ED0008742D7D00223994665E70029B8D06B1F07
:101EE0009946052D00D08DE70425102433099F4223
:101EF000C8D00323994656E70029A9D0062D00D063
:101F00008BE7192130000525192403F061FD874274
:101F1000B8D00423994646E700290CD005230625AE
:101F2000994640E7B74200D02BE7019BC1469A464D
:101F30000124012591E7019BC1469A46072401250A
:101F40008BE7C046508EF4FF50F80C00D0231B06E0
:101F50001B687B4A99005258F0B5574692465A1E64
:101F600093413022DE464E4645465B421A401300FE
:101F7000744AE0B5944683B063440193724B88463B
:101F800008260F279B463500083DEA0813000199F3
:101F900008339B005C58002C22D0012399465346FD
:101FA000002B27D039002140274213D05B46424600
:101FB0009A584B46AB401A420CD1072208002A40DF
:101FC000920090400200EB0860483C339B001A509E
:101FD0002800D04724090135002C01D0AE42E1D8B9
:101FE0000836282ECFD103B0F0BCBB46B246A94676
:101FF000A046F0BD39002140274206D00133AB4056
:10200000454651484059184276D02309E8D00F225E
:10201000110019401A420DD04546F31F0E3A9A405E
:1020200049484059104205D1DB08484A3C33090170
:102030009B009950230AD3D00F22110019401A4255
:102040000DD04546B31F0E3A9A403F4840591042C2
:1020500005D1DB083D4A3C3309029B009950230B14
:10206000BED00F22110019401A4236D1230CB7D02E
:102070000F22110019401A4243D1230DB0D00F2274
:10208000110019401A424BD1230EA9D00F22110082
:1020900019401A420DD04546B31E0E3A9A402A48BE
:1020A0004059104205D1DB08284A3C3309069B0001
:1020B0009950240F721E002C00D191E70123404655
:1020C000934021490958194200D089E7D3083C338D
:1020D0001E4A24079B009C5082E74546731F0E3A18
:1020E0009A40194840591042C0D1DB08174A3C3386
:1020F00009039B009950B9E7144B3C329200D15030
:1021000083E74546331F0E3A9A400F484059104224
:10211000B3D1DB080D4A3C3309049B009950ACE76E
:102120004546F31E0E3A9A40074840591042ABD13B
:10213000DB08064A3C3309059B009950A4E7C046DA
:102140009C280020004101400C300020004001404C
:10215000094A10B594464024830063441A68C000BD
:102160006240803414408022520113431C60034BB0
:102170009C466044416010BD04C0014000400140E5
:10218000034BC0009C46604443681F2018407047C2
:1021900000400140074B80009C4660440368C90032
:1021A00092000A435A400C231A4080235B010343E8
:1021B0001A60704704C00140F8B51D00D0231B060B
:1021C0001C680600604244412F2064428443274833
:1021D000F708844607203040800081403800244EB4
:1021E0003C3064448000BF008151E419002A11D0C2
:1021F00080229201224311601C681E4EA400A35944
:10220000002B15D0002D25D0A55101210D2000F067
:1022100019F9F8BDC0229201224311601C68154EC5
:10222000A400A359002B0CD0002D18D0A551F0E725
:10223000002DEAD000220D200F49A55100F070F9C1
:10224000E3E7002DE5D000220D200B49A55100F059
:1022500067F9DEE70D20084900F05CFAD4E70D20AD
:10226000054900F057FAA551D3E7C0463041014077
:10227000004001409C2800204D1F00100123D02267
:102280008340120693629361094A40219446830079
:1022900063441A68C0004A408031114080225201D4
:1022A00013431960034B9C46052360444360704709
:1022B00004C0014000400140EFF3108072B6034AB1
:1022C0001368002BFCD0BFF35F8F70472C0100D048
:1022D000BFF35F8F0022024B1A6080F310887047B3
:1022E0002C0100D0CB08C25C072301200B40984092
:1022F0001040431E9841C0B27047C04670B5EFF31E
:10230000108C72B60D4D2B68002BFCD0BFF35F8F85
:102310000724CB08C618C05C01230C40A3401C0056
:102320000440034207D118433070BFF35F8F2C6025
:102330008CF3108870BD100001F0F0FC2C0100D06F
:10234000F8B54746CE46884680B5EFF3108C72B696
:10235000214D2C68002CFCD0BFF35F8F9A422CD803
:10236000D4080727055D061901241740BC402C42FC
:102370001FD007210127894609E0D408055D061909
:102380004C4639001440A1400C00294211D00132C2
:102390009342F2D201204042BFF35F8F00220E4BE6
:1023A0001A608CF3108800280FDBC0BCB946B04619
:1023B000F8BD254310003570EEE7BFF35F8F0023B3
:1023C0002B608CF31088012040424346002BECD058
:1023D000089801F0A3FCC0462C0100D0024B1868FD
:1023E0008007C00F7047C04600C006400021044B64
:1023F000044ABFF35F8F02C39342FAD17047C046CD
:10240000000100D0800100D0044A1078431CDBB2E8
:10241000172B00D9102313707047C046A00400206A
:1024200010B5064B064C82B00100009318221F2302
:102430002000FFF785FF02B010BDC04650F8001025
:10244000A428002001238340002904D0034A1360FC
:10245000034A13607047034A1360FBE780E200E021
:1024600000E100E080E100E001228240034B1B68B4
:1024700013405A1E9341D8B27047C04600E100E0B5
:1024800001238340014A13607047C04600E200E028
:10249000084B10309B688000C358002B07D0064AB9
:1024A00000209B1A2F229A424041C0B27047002060
:1024B000FCE7C04600ED00E0A4040020024B103011
:1024C0009B688000C058704700ED00E070B50D00BB
:1024D000EFF3108672B60F4A1368002BFCD0BFF3DF
:1024E0005F8F0D4B10309B6884001B590B4A934241
:1024F00003D09D4201D001F029FC074B9B681D5180
:10250000BFF35F8FBFF35F8F0022024B1A6086F329
:10251000108870BD240100D000ED00E0CD01001056
:10252000F0B557464E46DE464546E0B585B0060056
:1025300000911700EFF3108B72B66B4A1368002BF3
:10254000FCD0BFF35F8F0025684B5D579A46002D86
:1025500000DA8CE06B00664C01935B199B00984697
:10256000A146C1444B4652469B7910361370614BCD
:10257000B6009B6899590B1B2F2B33D95E4B9942A0
:1025800000D0ADE0019B42469C465C4B6544AD00EB
:1025900063535B4B0232A218043B9B1A1B05594A3A
:1025A0005B0D651913436B80574B0121AB80FF23F3
:1025B000AB71009BEF71AB604B460B4319004D4B69
:1025C0009B689951BFF35F8FBFF35F8F0022464B2B
:1025D0001A608BF3108805B0F0BCBB46B246A94622
:1025E000A046F0BD01200A008243D3798C46BB424D
:1025F00031D84546130045491B1B5B415943090D22
:102600003E4B63533E4B02356519043B5B1B1B0578
:102610003C4D5B0D2B43AA464D466B800425AC46D2
:102620005546E044131F44441B1B1B055B0D1D4313
:102630004B46997100999D8099604946DF71344BF2
:1026400001431360BBE75800C01880002018C1790F
:10265000B94212D902000623D356002BF3DA0293B3
:10266000131D9A46BD231B026146039319E001F036
:102670006DFB002553465D576CE79088029340053B
:10268000131D9A46031561469C464046D444634652
:1026900004302018181AE0230005400D1B021843CF
:1026A000039004235B429C46E14450464B461B1A70
:1026B0001B055B0D9C46134B95719846634640463F
:1026C00003439380019B5A199200039BA418A38093
:1026D000029B0F4AA371009B2260E771A3606EE723
:1026E00001F034FB4EE7C046240100D093310020B6
:1026F000A404002000ED00E0CD01001000A1FFFFC8
:10270000D404002000E0FFFF00BDFFFFAAAA0000E4
:1027100001488047F0B5DE4657464E464546E0B58F
:102720000C0083B0EFF3108A72B6604A1368002B76
:10273000FCD0BFF35F8F1022914681444A465C4B28
:1027400096009B689D595B4B98469D4205D0A542DB
:1027500016D0594FEB1B2F2B14D9554B9B689D510D
:10276000BFF35F8FBFF35F8F0022504B1A608AF375
:10277000108803B0F0BCBB46B246A946A046F0BDE7
:102780001D00EAE7012383409B465A464B4B1B68DA
:102790001A4000925A464A4B1A60BFF35F8FFDF70A
:1027A00062FD031E01901DD12A0001339A439068F7
:1027B000844208D171E04B005B189B00FB189868BD
:1027C000A04245D01A00062151560029F3DA84426E
:1027D0006AD0009B002B34D05A463A4B1A60374BD4
:1027E0001A60BAE7814530D12A0001239A439068E4
:1027F0008442E8D1062151561300002940DB4A00EB
:10280000501880003C188046A0689860E079D87124
:1028100006202056987100282FDBA488F81A64053A
:10282000241544440019E0240005400D24022043EF
:1028300098805318244A9B001078FB1898711170E7
:10284000C7E75A461E4B1A6087E701F07FFACBE7CD
:10285000062159560029D2DA0199002910D1FF31F9
:1028600091711A49918018490A789A71184ADB1BAC
:102870005B415A43120D0A70ABE7BD200002D7E757
:10288000144A1549D21A083A5002400D0143998062
:10289000124952080A43DA809BE706215156130079
:1028A0000029ACDA4546DEE71300D5E7240100D065
:1028B00000ED00E0CD010010A404002000E100E0E4
:1028C00080E100E080E200E09331002000BDFFFFE6
:1028D000AAAA0000DE04002000F0FFFF00F8FFFFBE
:1028E000F8B5012504000543FDF7BDFCEFF3108C9E
:1028F00072B6214A1368002BFCD0BFF35F8F1F4EC6
:102900002100B7681E4A1F4B891A49414B431B0DD2
:1029100059B28300F858A8421CD00623D3568B42E4
:102920001CD01223D3568B4222D01E23D3568B4267
:1029300020D02A23D35603208B4210D0124B1A7872
:102940001970A271BFF35F8F00220B4B1A608CF3DA
:102950001088F8BDB2680D48D050EFE70020430062
:102960001B189B00D218FF239371094B9380E5E756
:102970000120F4E70220F2E7240100D000ED00E09E
:10298000A4040020AAAA000093310020CD01001069
:1029900000BDFFFF054B064A1360064A13605360F3
:1029A0009360D3601361536193617047808080802E
:1029B00000E400E004E400E0D02300B51B061B683F
:1029C0000100074883B01818064B00220093052326
:1029D000FFF7B6FC002801DB1F23181A03B000BD67
:1029E000703100206CF80010024B9C466144890055
:1029F000016070474000003483680B4810B584467E
:102A0000614462441201090159189B185C684A68C4
:102A10000120944201D802D00020C0B210BD1A6833
:102A20000B689A42F9D8F7E7FFFFFF0F10B50800CF
:102A30000B690C009847002802D02068616810BD1F
:102A4000E06000210020FAE70A4B1968EFF31080DC
:102A500072B60A68002AFCD0BFF35F8F1B68BFF311
:102A60005F8F00221A6080F3108840BF0020002191
:102A70007047C04620310020F8B5574645464E46BF
:102A8000DE46E0B598460CAB1C780DAB1B78070012
:102A900091469A460568002C5ED1AC7B002C3BD059
:102AA000660029683619033E89194B78AB73002BF1
:102AB00000D1EB7300238B704B700B702D4BE21821
:102AC000BB6812019B184A461A6042465A600A9A2D
:102AD0009A600B9ADA6000238B704B700B706B7BE3
:102AE0009B46002B2BD022005946A8686B6898475C
:102AF0002A68002816D05B4658465B005B4496194E
:102B0000033BB070D118D35C002B00D073705B46D0
:102B10000C706B735C4513D0F0BCBB46B246A94643
:102B2000A046F8BD5B465B005B44033BD3189C703A
:102B30009119925D002A00D05A705B460B706C733D
:102B40004A464346387D00F099FD051E0AD10E9B8A
:102B5000002BE1D01D70DFE7660029683619033EBF
:102B60008919ABE75346002BF1D12100386800F0FA
:102B7000DBFFECE7FFFFFF0FF0B5DE4657464E46A2
:102B800045460023E0B58DB00A936A4B8200D758C2
:102B900000239B460B9000F0DDFC02000B007868E0
:102BA000EFF3108972B64D4601680029FCD0A946A2
:102BB000BFF35F8F39684E7B8C46002E2ED0BC68E9
:102BC0005D49A246711809018A445146086849685E
:102BD00004000D00A41A9D41002D5EDD02000B00D3
:102BE0000B9800F04BFD002300229A460023089228
:102BF0000993002398467B68BFF35F8F5A461A609B
:102C000089F310884346002B12D10028C3D10DB0A0
:102C1000F0BCBB46B246A946A046F0BD0023002248
:102C20009A46002308920993002300209846E2E781
:102C30000A9B514618023043C047069007917A68B4
:102C4000EFF3108572B654461368002BFCD0A246F1
:102C5000BFF35F8F0699079A002A3BDB114302D02E
:102C60003B69002B52D13B68D97B002905D01A68FB
:102C7000480041185218033A5670DE73FA68013E54
:102C8000935D013393555B463B617B68BFF35F8F78
:102C90005A461A6085F310887DE7002D01D1002C7B
:102CA0009CD10021604600F0A7FE53465C681B687B
:102CB0000893099453469B6898465346DB689A46A6
:102CC000FB689B19013B1B780A931B0203433B6182
:102CD000002090E73B69002BC5D0089B099C5B1A3C
:102CE0009441089809991A002300A14219D89942E1
:102CF0001BD00021049101310391514601914146BD
:102D0000380002960091FFF7B7FEBCE700F022FC06
:102D1000069A079B12184B41994202D8E9D190427A
:102D2000E7D901225242D317E3E708999142E0D94B
:102D3000F7E7C046EC2F0020FFFFFF0FF8B557461E
:102D40004E464546DE46E0B5404D824689466A68B5
:102D5000EFF3108872B61368002BFCD0BFF35F8FBF
:102D60002E68B47B002C48D0670033683F19033FBE
:102D7000DB195A78B273002A00D1F273344AA118D1
:102D8000AA680901521851461160494651603149FB
:102D900091600021D160997059701970737B9B46C6
:102DA000002B45D022005946B068736898473268B6
:102DB000002830D05B4658465B005B44D719033B84
:102DC000B870D118D35C002B00D07B705B460C70C0
:102DD00073735C452DD00026EB681B19013B1978F5
:102DE0006B68BFF35F8F00221A6088F310880020A1
:102DF000002E0AD10802204307E06B68BFF35F8F03
:102E00001C6088F3108801204042F0BCBB46B246EB
:102E1000A946A046F8BD5B465B005B44033BD31864
:102E20009C70D119D25D002A00D05A705B460B709D
:102E3000747352464B46287D00F020FC061ECAD013
:102E40002100286800F070FEC6E7C046EC040020B0
:102E5000FFFFFF0F492A001010B5124C6368002BCA
:102E600004D00A211048FFF7BFFD10BD23000F4A10
:102E70001021206800F0C0FC032000F05FFB03205D
:102E800000F06AFC03200A4900F0B2FBFFF7BCFA2D
:102E9000084B9C46032360442375074B8000606009
:102EA000DC60DEE7EC04002020310020F92900106E
:102EB000792B001040000034EC2F002000487047B0
:102EC000EC040020F0B557464E464546DE46E0B5D8
:102ED00085B0019310AB1B780600039300239A463C
:102EE000984600927268EFF3108B72B61368002B4D
:102EF000FCD0BFF35F8F3568AC7B002C6BD06700D4
:102F00002B683F19033FDB195A78AA73002A00D1B6
:102F1000EA73524AA118B26809015218009801993F
:102F2000106051600E9991600F99D16042469A707D
:102F30005A701A706B7B9946002B00D175E0220005
:102F40004946A8686B6898472A68002860D04B46B5
:102F500048465B004B44D719033BB870D118D35C8B
:102F6000002B00D07B704B460C706B734C455DD0D2
:102F7000F3681B19013B18787368BFF35F8F4246F3
:102F80001A608BF310885346002B08D100022043AF
:102F900005B0F0BCBB46B246A946A046F0BD039BB7
:102FA000002B59D00E9B00200F9998470300040076
:102FB0000D000B4350D0002916DA00980199020049
:102FC0000B00121BAB4199421CD83CD000920193DC
:102FD000039B9A4686E77368BFF35F8F1C608BF391
:102FE000108801204042D3E700F0B4FA02000B0041
:102FF000A4185D4100940195A94203D8E8D1009935
:103000008A42E5D901235B42DC1700930194DFE794
:103010004B465B004B44033BD3189C70D119D25DE7
:10302000002A00D05A704B460B706C73307D009AAA
:10303000019B00F023FB8246002899D021003068D4
:1030400000F072FD94E700999142BFD901235B42E1
:10305000DC1700930194BBE7002099E7FFFFFF0F07
:10306000F0B557464E46DE4645461100E0B585B000
:1030700006009C46109F194300D1F9E06146DB171A
:103080000193009353401C00019B4B401D0000988E
:103090000199241A8D4163460E997B600F9B3A601B
:1030A0007B61BE60396100F055FA02000B00A41884
:1030B0005D4100940195A94200D9E3E000D1DDE033
:1030C00000239846744B1097039300239946109B56
:1030D0003700464698467A68EFF3108B72B613684D
:1030E000002BFCD0BFF35F8F3D68AC7B002C00D180
:1030F00074E063001B19033B1A00944602932B688B
:1031000063445A78AA73002A00D1EA73634AA1186B
:10311000BA6809015218009801991060516003992A
:1031200091604146D1604A469A705A701A706B7B22
:103130009A46002B00D184E022005146A8686B68B3
:1031400098472A68002800D16DE053465B0053443D
:10315000033B9C46D118534602981018837063466F
:10316000D35C002B00D0437053460C706B7335005A
:10317000544567D0FB687A681B19013B1B78BFF385
:103180005F8F494611608BF31088002D0CD14746A4
:103190001B02234301352800FB6005B0F0BCBB4691
:1031A000B246A946A046F0BD434640461B69984733
:1031B000061E1FD042461468556822002A4367D075
:1031C000002D1ADA0098019902000B00121BAB4186
:1031D000994222D843D0009201937CE73E004746B3
:1031E0007368BFF35F8F1C608BF310880123002589
:1031F0005B42D0E747460023CDE700F0ABF9020081
:103200000B00A4185D4100940195A94205D800D097
:1032100061E700998A4200D85DE701235B42DC1731
:103220000093019457E753465B005344033B0298D5
:10323000D3189C701118125C002A00D05A705346A3
:103240000B706C73387D009A019B00F017FA051E15
:1032500000D18FE72100386800F066FC8AE700990A
:103260009142B8D901235B42DC170093019432E705
:1032700000230124002501229C460CE700998A4284
:1032800000D81DE701235B42DC170093019417E788
:103290004746050000237EE72D2A0010FFFFFF0FA1
:1032A000F0B504000D0006267642F717C64636191B
:1032B0006F4100B58F4213D810D000F04BF93200A7
:1032C0003B00121A8B41002B14DC002B37D0290055
:1032D000200000F07DF980BCB846F0BD8642ECD9F4
:1032E0000026002700F036F932003B00121A8B410D
:1032F000002BEADD30003900FFF720FD0028E6DB77
:1033000000239846BC460F4A0F4F7B6A9C4504D861
:10331000B96AB142DBD29C45D9D11168EFF3108074
:1033200072B60B68002BFCD0BFF35F8F1368BFF33E
:103330005F8F4146196080F3108820BFE5E7002ABF
:10334000C5D0D7E7203100200040054070B504000B
:103350000D0000F0FFF802000B002000290080188B
:1033600059418B4205D802D0FFF79AFF70BD8242C7
:10337000FAD901204042C117F6E7C04670B50600F1
:1033800000F0E8F8FA2204000D00002330000021CC
:10339000920003F07DFD001969418D4205D802D0ED
:1033A000FFF77EFF70BD8442FAD901204042C11769
:1033B000F6E7C046F8B5CE46474680B505000C0096
:1033C000FFF7BCFC031E0CDC2C4A0020536A9C4215
:1033D00003D8926A0130AA423ED3C0BCB946B04677
:1033E000F8BD20BF264E7168EFF3108772B60A68E9
:1033F000002AFCD0BFF35F8FDAB294463068427B7C
:10340000624533D0FF2201681A4089465100884640
:1034100049469044414403398978002921D0F16814
:103420001B0A8A18013A1278DBB29A4221D07368DB
:10343000BFF35F8F00221A6087F310880F4B0020C4
:103440005A6A9442C9D89B6A0130AB42C5D2A01ACD
:10345000431E9841C0B2C0E7E31A5A1E9341D8B246
:10346000BBE732699342E2D13161E0E7FF221A40C3
:10347000D5E7614600F058FBD9E7C046004005405B
:10348000EC040020F0B5D6464F464646C0B5EFF3F3
:1034900005823F23134018001038EFF3108C72B6EA
:1034A00020490A68002AFCD0BFF35F8F0122170071
:1034B00087401D4C1600A24667631C4C2578A04629
:1034C0002C00C4402640224215D05246566A184A63
:1034D0008400A258964218D34246164BBD43E35887
:1034E0001570BFF35F8F00220A608CF31088002BE9
:1034F00006D0984704E0BFF35F8F0E608CF310880E
:10350000E0BCBA46B146A846F0BD0B4A9B009046C7
:1035100043441A681A60BFF35F8F00230B608CF37B
:103520001088EDE7280100D00040054097310020C9
:103530003C31002078270020D03F054010B5034BD8
:1035400001001800024AFEF7D9FE10BD903100209C
:1035500090F80010034B596A0A00986A596A8A4227
:10356000FAD170470040054070B504000D00174ABD
:10357000536A1900966A536A8B42FAD130001900D7
:1035800024184D41AB4216D813D0104B2A005B6A69
:103590009D4203D90D494B6A9342FCD3934207D114
:1035A0000A4A02E0516A994202D1916AA142F9D3D2
:1035B00070BDA642E9D9054B5B6A1C005A1CEFD0CE
:1035C000012201246442E5175242E3E7004005402E
:1035D000064A536A9942FCD807D1044B02E05A6A62
:1035E000914202D19A6A8242F9D370470040054065
:1035F00070B504000D00EFF3108672B61A4A136816
:10360000002BFCD0BFF35F8F002D1BD02000FEF7F6
:1036100055FF164981420AD02000FEF757FF0121CD
:103620002000FEF70FFF0123A340114A1360114B46
:10363000A400E550BFF35F8F00220B4B1A6086F3A6
:10364000108870BD0121A1400A4BA200D5500A4B41
:1036500020001A788A4305491A70FFF75BF80021A9
:103660002000FEF7EFFEE5E7280100D085340010CA
:10367000386005407827002097310020F0B54F468C
:10368000D6464646C0B507002E4C616A0D00A66AB4
:10369000616AA942FAD18B4208D805D00120E0BC6A
:1036A000BA46B146A846F0BDB242F7D9EFF3108A48
:1036B00072B6254801680029FCD0BFF35F8F012551
:1036C000BD4022491F4C8846097889462943C9B222
:1036D0008C46414660460870391D890065630A5171
:1036E0001B49B8004350216A0020294219D0616A61
:1036F0000800A66A616A8142FAD18B4219D801D1C9
:10370000B24216D8CC450BD00E4B1F221D625D6312
:1037100001233A4093400F4A136043464A461A70C9
:103720000120BFF35F8F0022074B1A608AF31088D5
:10373000B5E70020BFF35F8F0022034B1A608AF3C6
:103740001088ACE700400540280100D097310020E8
:103750003C31002080E200E0EFF3108C72B60A49A1
:103760000B68002BFCD0BFF35F8F01238340074A17
:103770000748136202789A430270BFF35F8F0023F9
:103780000B608CF310887047280100D00040054082
:103790009731002070B505000E001400002923D0D9
:1037A000002A12D080686B689847296800280ED0DC
:1037B00063001B197200033B9219CB18033A9E70E9
:1037C00088188A5C002A11D10470300070BD730023
:1037D0009B196200033B1219CB18033A9C7088189E
:1037E0008A5C002A05D106702000EFE75A70047049
:1037F000EBE75A700670F7E730B583600023CCB270
:1038000043730133047342608373C4730D00006813
:10381000012C06D9421C0133DBB2137003329C42E7
:10382000F9D1FF2129404B005B18C0180023033851
:10383000437030BD70B505000C1E07D063000168F1
:103840001B19033BCB185A78002A01D1200070BD08
:10385000500080180338091800204E784870210065
:1038600058702800FFF796FF310004002800FFF78A
:10387000E1FF0600002C26D00028E7D0210032000E
:10388000A8686B689847296800280ED073009B19B8
:103890006200033B1219CB18033A9C7088188A5CAB
:1038A000002A00D05A700670D0E763001B1972001E
:1038B000033B9219CB18033A9E7088188A5C002A41
:1038C00000D05A7004703400C0E7C046F8B55746BF
:1038D0004E464546DE464C00E0B5641817000268C7
:1038E000033C0500105D13190E009C46002852D0C1
:1038F000430098461B18033BD31859788A46002981
:1039000019D1002F0CD0EC7B002C50D063001B1978
:10391000D318033B5E70EE734346191803395318EE
:1039200000229A70002362465370F0BCBB46B24638
:10393000A946A046F8BD49005144033952185178B0
:10394000884600215170894659705246010028006E
:10395000FFF720FF43468246002B07D05B00296813
:103960004344033BCB185A78002A2CD15146424697
:103970002800FFF70FFF0100002F1AD0A4462A6885
:10398000EF7B9444002F04D07B00DB19D318033B5A
:103990005E70EE7310E0002FC4D0E97B002910D0D8
:1039A0004B005B18D318033B5E70EE73BAE7EE73FF
:1039B000B6E7A4462A6894440029B3D04B00984641
:1039C000AAE7EE73AEE7500080180338091848786C
:1039D000834648464870587041462800FFF7DAFE93
:1039E000594680462800FFF725FF4146020028007F
:1039F000FFF7D0FE8046B9E7F8B557464E46454634
:103A0000DE46E0B5467B02687500AD19033D0F0048
:103A1000515D531904009C46002953D04B00984631
:103A20005B18033BD3185878824600281BD1002F1F
:103A30000CD0E57B002D51D06B005B19D318033BF4
:103A40005E70E673434658180338131800229A70C4
:103A500000236246300053706173F0BCBB46B2462F
:103A6000A946A046F8BD40005044033812185078CB
:103A70008046002050708146587052462000FFF763
:103A800089FE43468246002B07D05B0021684344F1
:103A9000033BCB185A78002A2CD1514642462000CD
:103AA000FFF778FE0100002F1AD0AC462268E77BB2
:103AB0009444002F04D07B00DB19D318033B5E70C5
:103AC000E67310E0002FC3D0C07B002810D0430065
:103AD0001B18D318033B5E70E673B9E7E673B5E7CE
:103AE000AC46226894440028B2D043009846A9E727
:103AF000E673ADE75000801803380918487883460C
:103B000048464870587041462000FFF743FE59462A
:103B100080462000FFF78EFE414602002000FFF79E
:103B200039FE8046B9E7C04670B5050000292CD0A3
:103B3000437B8B422ED04C0000686418033C041970
:103B4000A278002A21D053009B18033BC25CC61800
:103B50008A4202D11BE0002A08D053009B18033B85
:103B6000C3185A788A42F6D162785A70002301222B
:103B70002800A3706370FFF7A9FE697B020028008C
:103B8000FFF708FE6873012000E0002070BD637835
:103B90003370EBE701221900FFF798FEF2E7C04609
:103BA00010B50400FEF730FC01002000FEF71CFFFA
:103BB000FF232371BFF35F8F10BDC04610B5040013
:103BC000FEF722FC01002000FEF70EFFFF23A3807A
:103BD000BFF35F8F10BDC04610B504000120FEF793
:103BE0001FFC034BC3189B002360BFF35F8F10BD06
:103BF000400000342C4B2D4A70B51A602C4A2D4BD6
:103C00002D491A6014008B689C43FBD12B4D2C4E20
:103C1000B54208D2013E761BB60808CD984723006E
:103C20000134B342F9D100F01FF9264A214B1A6042
:103C3000214A9368DB43DB01DD09002BF9D14022E7
:103C4000214B224C224E9A675A671A67DA66B442B1
:103C500008D223682000002B20D00834FFF7AEFFE5
:103C6000B442F6D31B4C1C4EC022B168200003F0B6
:103C70007FFAB460FEF7BAFBFEF78CFEFFF7ECF8B4
:103C8000164C174EB44208D2013E361BB60808CC7B
:103C900098472B0001359E42F9D170BD0834FFF7DB
:103CA0007FFFB442D5D3DDE700E00040BFCDFBFE8F
:103CB000FE7F3C0000F0004000C00040F80D0020F6
:103CC000080E0020FFFFFF0100F00140E80D00207A
:103CD000F80D00200000002000ED00E0080E00209C
:103CE000100E0020094A03001068002805D008497A
:103CF000C3188B4207D81360704706480449C3189D
:103D000010608B42F7D901204042F5E77C29002062
:103D1000000004209831002000BEFDE70FB400B57C
:103D2000084883B003F00CFB049B002B07D005A9C7
:103D30001800019101F0D2FD034803F001FB00BE21
:103D4000FDE7C046B4F800106CFE001010B5014845
:103D5000FFF7E4FFC4F80010F0B545464E46DE46D6
:103D60005746E0B583B016000C9A050088469A4283
:103D700000D973E01A0E93461B02180001935946AE
:103D800000230C9A01F066FE354B6C009C466419CA
:103D9000A400644463680700834200D260602B1F64
:103DA000DBB29946012B34D9C02380229B012343E7
:103DB00012011A602B4BAD0059599A46002905D0C3
:103DC000586901F005FE01300138FDD12268730108
:103DD0005340E0221A4080235B0123431A604A4685
:103DE000012A2ED9802380229B01234312011A60CD
:103DF000594600233A000198676001F02BFE5346B4
:103E00005851012003B0F0BCBB46B246A946A046BB
:103E1000F0BD4346012BC7D1C02303229B0123439E
:103E20001A60023AA3681A42FCD022687301534018
:103E3000E0221A4080235B0123431A60094AAD0047
:103E4000924642462168514003220A401A600122EC
:103E500043469A40A3681A42FCD0C3E70020D1E74A
:103E600000800040A80E002010B50C2082B000F0A9
:103E7000AFF9FEF7B3FA002810D0864B8648864982
:103E8000864A186059609860D960186159619861D4
:103E9000D961186259625A6202B010BD804CA067A5
:103EA00000F0ECF901227F4B1A60636C012BFCD10E
:103EB00003227D4B1A607A4A936B012BFCD10133AC
:103EC00001217A4A7A480093043300F02DF9052342
:103ED000784A00930121784800F026F9774B5A6818
:103EE000FF2A02D8802252005A6080226E4B694C11
:103EF00012011A602169002905D0606901F068FD8E
:103F000001300138FDD1E0226C4B6D4819680A4040
:103F1000026002221968514001320A400421026005
:103F20009A681142FCD08021664A09011160802202
:103F300052005A60644B2361644B5968FF2900D8D2
:103F40005A6003220121574B1A60604A9368194254
:103F5000FCD0E023106803405D480360126803232F
:103F60004A4002211340594A036093681942FCD029
:103F70008021584B090119608021574B490051603D
:103F80006361564B5A68FF2A00D859608022544B0F
:103F900012011A60E169002905D0606901F018FD7D
:103FA00001300138FDD1E0234C4A11680B404D49E6
:103FB0000B6080214C4B090119608021364B490070
:103FC0005160E361494B5A68FF2A00D8596080224A
:103FD000474B12011A60216A002905D0606901F07F
:103FE000F7FC01300138FDD1E023404A11680B4055
:103FF00040490B608021404B0901196080235B0020
:1040000053608022244BD20223623C4B5968914278
:1040100000D25A6080223A4B12011A60616A00296C
:1040200005D0606901F0D4FC01300138FDD1E023F6
:10403000324A11680B4033490B608021324B090131
:1040400019608023DB025360144B63622F4B5A6864
:10405000FF2A02D8802252005A6080222C4B120183
:104060001A60A169002905D0606901F0B1FC013036
:104070000138FDD1E023254A11680B4025490B602A
:104080008021254B0901196080235B005360124B8E
:10409000A36101E7A80E0020006CDC021BB7000042
:1040A000008000403CB0004030B00040002F685914
:1040B00000800240008C864700C0024030800040F3
:1040C0003090004030A00040001BB7003C80004012
:1040D0003C9000403CA00040405973075480004091
:1040E00054B000405490004054A000406080004014
:1040F00060B000406090004060A000406C800040D4
:104100006CB000406C9000406CA0004048800040C3
:1041100048B000404890004048A00040014B80005B
:10412000C0587047A80E0020F8B504000C201700F6
:104130001D000E0001F04CFC43011B1A9901C91A25
:10414000C90009188901380001F042FC069B2904C6
:104150001B0319432368002B20DB194B194DE3186F
:104160005A4253418022520194461B03164A63442B
:104170001360164A13601F00AA689743FBD1C0233F
:10418000221D9B01134321222660A0601A60226831
:10419000002AFCDA0822E1601A60F8BD3F23226899
:1041A0001340B342D9D1A3681B051B0D8342D4D160
:1041B000EE22E368D20213408B42CED1EDE7C04637
:1041C0000040FDBF00C0004000E0004000F00040A3
:1041D0008023024A9B000343D3627047008005405E
:1041E00010B580241C4BE4051C6000281AD0012364
:1041F0001A4C18431A4BDC611A4C44401C62596239
:1042000098628021144BC905196017481749086046
:10421000E021C9041960002A07D18022144B12063C
:104220001A6010BD0E4BD861EBE753019B1A9B003F
:104230009A18802312015B049A4209D213000D4997
:104240000B60074B5A608022094BD2051A60E8E7E1
:10425000094B1A00F3E7C04600B00540D3C007B0D1
:10426000008005402D3FF84FFCFF01000820014071
:1042700000A005408C2D0020FFFFFF00AA23064A66
:104280001B0113602F230549D360054B1960536848
:10429000002BFCDA7047C0460040024000B0FA0034
:1042A000006002409A4200D2885470477047C0466E
:1042B000F8B557464546DE464E46E0B598460A9B59
:1042C00006009A460D9B0F00934615009B0710D1E0
:1042D0000B9B0C9A93420CD213005C460B9A9D1ACE
:1042E0005D4422004346013439002020B047A542F6
:1042F000F7D10B9C6319002C09D01D0053462A1BD3
:10430000013C185D39004346B047002CF6D10D9BA7
:104310009B070ED55B46EC1A0C9BA34209D9994624
:104320002A004346390020200134B0470135A14519
:10433000F6D82800F0BCBB46B246A946A046F8BD58
:10434000F0B54F464646D646C0B584B098460EAB4B
:104350001B7894469946129B0D9C109F119E9A07BC
:1043600024D4002E6AD1BC4220D201221A409246A7
:10437000202C00D1CBE00C9A551E302201E0202CDD
:1043800030D001342A55A742F9D85246002A0DD020
:10439000B4420BD20C9A551E3022202C02D126E0BA
:1043A000202C61D001342A55B442F9D1DA0634D533
:1043B0005A0562D4002C5CD10F9A102A00D191E0EA
:1043C000022A00D1A1E030220C9C227001244A462E
:1043D000002A5CD15A0700D47DE02B220C9D2A557F
:1043E00001341CE05246002A02D0202E3CD9202461
:1043F000DA0614D55A0512D4202F00D197E0202ECA
:104400003BD120261F2234000F9D102D00D181E0CA
:10441000022D4CD030250C9FBD54202CD7D10393B6
:104420000C9B62460093029643460194FFF740FFBF
:1044300004B0E0BCBA46B146A846F0BD0122150062
:104440001D40AA461A4227D04A46002A33D10C32D0
:104450001A4230D1BC429BD2202C00D08BE7202EB8
:10446000C5D8DA06A4D4DAE72024DA06D7D55A0567
:1044700003D4A74221D0B4421FD00F9A102A21D0D2
:10448000022A10D0202CCAD022000134C2E72D22EB
:104490000C9D2A550134C2E7BC4200D386E7202C8C
:1044A00000D068E7E1E7202CB9D022000134622572
:1044B0000C9FBD54E6E7013ECCE7621E012C00D103
:1044C0007AE7A1E79A0616D4202CA8D078220C9D72
:1044D0002A550134D6E71A07A1D520220C9D2A556A
:1044E00001349CE79A060ED478220C9C227030226C
:1044F000627002246BE7202C91D058250C9A121977
:1045000015700134BEE75822EFE76222EDE7002A7A
:10451000A7D1AAE7023C9D0604D478250C9F3D55FF
:104520001400B1E758250C9F3D551400ACE71F223D
:104530006AE7C04610B5002800D110BD02F0AEFEFB
:10454000FBE7C0460B0010B5002802D049681B6885
:10455000984710BDF0B557464E464546DE46E0B595
:1045600099B08246894690460993229A239B10006F
:10457000190001F00AFD002800D0C8E02298239914
:104580000122D54B524201F0FBFC002800D0BEE0D6
:10459000229823990122D14B524201F0DBFC0028E2
:1045A00000D0B4E0229823990022002301F0D2FC2D
:1045B000002800D0E9E1229E239F8023269ADB0079
:1045C0001A400D92269A1A4201D1062324933B00E9
:1045D000334300D0B4E0269B1B0500D5BFE1002388
:1045E00000240A930B94002304250C93259B00249C
:1045F000AB4200D95C1B0223269A1A400D92269AE0
:10460000134203D06B426B415B421C400C9B002B5E
:1046100007D00A9A0B9B3000390001F03AFC0600E3
:104620000F00229823990022002301F093FC002818
:1046300003D0802109067B181F00269AA84B0096FC
:1046400001971340099E0493249B039402934246CE
:1046500033004946504600F0A7F90400002D67D00A
:104660002020269A4946024013005A4253415B4299
:10467000621C18400A92330022004530D0470C9A41
:104680006F1ED317D4185C40D30F9B46002501E062
:10469000202D13D008AA94461F23200063440A212A
:1046A00001355E1901F094F93031317020000A2192
:1046B00001F08EF926000400092EE9D8052306939F
:1046C000002304930A3303935B46099E029310ABC5
:1046D0000A9A009349463300504605970195FFF723
:1046E0002FFE0D9A0400002A22D04246851A259AF0
:1046F000AA421DD9B04657461600220043464946F5
:1047000020200135B8470134AE42F6D810E0269B90
:1047100042460493259B49460393249B50460293AB
:10472000229B239C00930194099B00F03DF9040017
:10473000200019B0F0BCBB46B246A946A046F0BD69
:10474000684B78009C46400D604401F031FC664A9D
:10475000664B01F0BCFB664A664B01F091FB664A72
:104760003B031B0B1A4304000D00644B1100300087
:10477000002201F07CFB624A624B01F0A8FB0200C0
:104780000B002000290001F07BFB01F029FC0C90BC
:1047900001F00EFC5C4A5D4B04000D0001F097FB3C
:1047A00000225B4B01F06CFB01F01AFC594A834676
:1047B000594B2000290001F08AFB040058460D00E7
:1047C00001F0F6FB554A564B01F081FB02000B004D
:1047D0002000290001F04BFB02000B000A900B9116
:1047E00001F075FB04000D000A980B9902000B0004
:1047F00001F046FB00220E900F914A4B2000290049
:1048000001F047FB0022484B01F03AFB02000B008D
:104810002000290001F03DFB0022444B01F030FB59
:1048200002000B002000290001F033FB0A9A0B9BC9
:104830000D0080210400C905002001F018FB0200D2
:104840000B002000290001F01BFB394C02000B007B
:104850000E980F9901F01DFB5C440022264B01F0DD
:104860000FFB2305002201F032FB04000D000200C3
:104870000B00300039000A940B9501F06BFB002807
:104880005ED123002A00C6250C9963318D42AD41CB
:1048900026996D420435090500D4A7E6134364D078
:1048A00030003900234A244B01F062FB002807D076
:1048B000002230003900214B01F04CFB002854D17C
:1048C000249B002B00D191E60D9B5A1E9341249A04
:1048D000D31A24938AE6C046FFFFEF7FFFFFEFFF66
:1048E000FFF7FFFF01FCFFFFFB799F501344D33F0D
:1048F000B3C8608B288AC63F0000F03F0000F83F35
:1049000061436F63A787D23F71A379094F930A4030
:104910000000E03F1655B5BBB16B0240EF39FAFE1F
:10492000422EE63F00002C400000244000001840CA
:10493000FF0300002D431CEBE2361A3F80842E411A
:104940000C9B0022013B0C932000164B290001F028
:10495000A0FA0A00010003000A910B9293E70023DA
:1049600000240A930B9400230C93249A0C9B9A42E4
:1049700014DDD31A013B24938023269ADB001A43CB
:104980000023002526920C9330E6802212069446DE
:10499000229B1E00239B63441F000EE600232493EA
:1049A000EAE7C04600002440F0B54546DE464E46E4
:1049B0005746E0B595B08B46904699461E9A1F9B88
:1049C0000A9019001000209D01F0DFFA002800D0A5
:1049D000B0E11E981F990122C74B524201F0BAFA6A
:1049E000002800D037E11E981F990122C34B524284
:1049F00001F0C6FA002800D0A7E01E981F990022F7
:104A0000BF4B01F0BDFA002800D088E01E981F9926
:104A10000022BC4B01F09EFA002800D07FE01E98D7
:104A20001F990022002301F095FA002800D0FAE037
:104A300000230B938023229C229ADB001C401A4205
:104A400000D102E1092D00D87EE106A98C462C0098
:104A5000172200233021093C62440133D154EF1A5C
:104A6000202B00D132E1A342F7D10022A44B0692C1
:104A700007931E981F9901F0B3FA050001F098FA08
:104A800002000B001E981F9901F0F1F9069A079B8E
:104A900001F01DFA0890099101F0C6FA060001F034
:104AA00083FA02000B000898099901F0E0F900224E
:104AB000954B0890099101F063FA002800D1D2E0EB
:104AC0000136300001F070FA069A079B01F050FAA7
:104AD000002801D000260135AA46002F00D098E01A
:104AE000280001F065FA02000B001E981F9901F0E2
:104AF000BEF9854B002206000F0001F02BFA0CAB2B
:104B00009A46002845D10022300039007E4B01F042
:104B100037FA00283DD1EB073BD5013539E0229B20
:104B200042460493219B594603930A981E9B1F9C5F
:104B30000295009301944B46FFF70CFD15B0F0BCB5
:104B4000BB46B246A946A046F0BD229B5B0767D490
:104B500003226E4B229901920391219902910093B5
:104B600042464B4659460A98FFF7A2FBE6E706AADB
:104B700094461723280063440A2101341E1900F0CB
:104B8000FFFE3031280031700A2100F0F9FE051EC9
:104B900076D0202CEBD10323229A1340012B1DD178
:104BA000219B002B1AD00B9B002B00D0BBE0229A3C
:104BB0000C33134200D0B6E0219BA34200D887E01B
:104BC00006AB9C4617223023624404E0219901344D
:104BD00013558C4259D0202CF8D12024229B0194CB
:104BE0000393219B02935346B9E706AA94461723E1
:104BF0000A216344300001341D1900F0E9FE303110
:104C0000297030000A21013F00F0E2FE092E46D94A
:104C10000600202CE9D155460CAB20249A46B8E773
:104C200004223B4B96E71E9A1F9B0020002101F0B7
:104C30001EF901230B938023229C229ADB001E90F5
:104C40001F911C401A4200D0FCE60022314B06277F
:104C5000069207930DE7229B0393219B0293042363
:104C600001932D4B7BE7002208980999264B01F010
:104C700071F9002800D02FE7002E4FD101362BE725
:104C80000323229A1340012B68D0202CA6D00B9B23
:104C9000002B1FD02D235246135501349EE7554655
:104CA000202CB9D030223B19002F4BD0172006A959
:104CB000013409180A55202CAED09C42F6D10CAA1A
:104CC00092462E2251465C1CCA5462E72024CCE650
:104CD000202C83D0229B5B0708D4229B1B0700D487
:104CE0007CE7202352461355013477E72B235246A5
:104CF0001355013472E7C046FFFFEFFFFFFFEF7F60
:104D000065CDCD4165CDCDC10000E03FD8F80010A4
:104D1000D0F8001080842E41E0F80010F30700D492
:104D2000DAE60136D8E6219B013B2193A34200D964
:104D300046E7AAE7229B0393219B02930323019357
:104D4000084B0CE72300BAE7074BEA009B185C68A6
:104D50001B682F000693079400248AE6219B002BF2
:104D600093D020E7DCF8001088FA0010F0B5DE469A
:104D700057464E464546E0B59FB01C00289B9346DB
:104D80000A93CC4ACC4B8A4609901A60002900D17C
:104D90004DE1002320789946002800D14FE1C74B10
:104DA0004D460893C64B0D930AE02A006E1C5B46E5
:104DB000099D5146A847350001342078002872D05B
:104DC0002528F2D110239946083B9846043B002140
:104DD0009C4602270134207826000300203BDBB2EA
:104DE000102B03D8089A9B00D3589F460300303BF2
:104DF000092B6ED900272A2800D18AE000230B93C3
:104E00002E2800D176E00300683BDBB2122B1BD8C2
:104E1000AC4C9B00E3589F46012301341943DAE769
:104E200039430134D7E7634601341943D3E74B468E
:104E300001341943CFE7434601341943CBE78023BC
:104E40005B0070781943013667280AD824281FD9D7
:104E50000300253BDBB2422B1AD80D9A9B00D35896
:104E60009F460300693BDBB20F2B11D801249C4005
:104E7000954AA446904614400C9462464446224209
:104E800000D025E20A2B00D101E1072B00D1D8E0A8
:104E9000099C2A005B465146A04770786F1C741C21
:104EA0003D0000288CD1A9462C00CB4503D8012316
:104EB0005B425B4499465B464A4651460020099D49
:104EC000A84720001FB0F0BCBB46B246A946A0468A
:104ED000F0BD0027BB00DF1901367F003F18307896
:104EE000303F0300303B092BF4D900230B932E28CD
:104EF00000D088E780237078DB0019430300303B43
:104F0000741C092B00D82CE12A2800D138E1260096
:104F100079E70A9B80CB002F03DB60780A93661C3D
:104F20006CE70222607811437F420A93661C65E7B2
:104F3000672800D1C8E1472800D104E2452800D104
:104F400004E207200A9B04910733834319000B9A5C
:104F5000039702920CC90998009201930A912A00C2
:104F60005B465146FFF7F6FA741C050025E770789A
:104F70006C2800D10DE280235B001943013663E702
:104F800080239B007078194301365DE770786828AC
:104F900000D1F9E180230136194355E7462800D1B5
:104FA0008FE107200A9B04910733834319000B9A72
:104FB000039702920CC90998009201930A912A0062
:104FC0005B465146FFF7F0FC741C0500F5E62A002D
:104FD000099C5B46514625206F1CA0473D00741C70
:104FE000EBE6890700D4DEE10A9B2A0098466B1C99
:104FF0009946434601CB51469846099C5B46C0B250
:10500000A047ED19012F00D893E24C46B146564611
:10501000099F22005B46013431002020B847AC4292
:10502000F7D1B24643464E460A93741CC5E6274B59
:105030002078099300239946002800D0AFE6002489
:1050400033E70A9B1A0008CA9046002B00D1A7E05C
:10505000212008430EA98C461F2262440F27AC462C
:10506000814615000C9C02E0202C0CD01300380067
:10507000184001003731092800D807390134295573
:105080001A090F2BF0D8654648460C9494E00A9B09
:105090001A0008CA12920B9A002A7BD102241A78AD
:1050A0006442002A1DD0013418199C461C000300DC
:1050B00010E0C0466D4D0010882D0020E8F800106B
:1050C00078F900102CF9001041900000AD4200105A
:1050D0009C4203D0607801340028F9D16346E01A7D
:1050E0000C908020C0008446084080466046014203
:1050F00004D00B980C9C844200D90C90022084466A
:1051000008400A906046084200D189E1101E00D193
:1051100070E14246002A00D11BE10B9A5B1B9046CE
:10512000A84444462A00B84699465746B246099EC6
:1051300009E05B463900551CB0474B46585D0028D6
:1051400000D12CE12A009442F3D156462500BA46FC
:1051500047460A9B002B00D04CE1129B741C0A931B
:105160002BE6002293009B185B0001341A1820786C
:10517000303A0300303B092BF4D926000B9242E66B
:105180000A9B023604CBD043C01702400B92307802
:105190000A9338E61A78002AA3D00B98441E82E7B7
:1051A0001023080080279843113318430B00FF0099
:1051B0003B40394200D14DE7082305930B9B2A0061
:1051C000049310230393002302930C9B06900193F6
:1051D00016AB009351465B460998FFF7B1F843467A
:1051E0000500741C0A93E8E5622800D1A6E158285E
:1051F00000D1B1E180230A00DB001A409046194239
:1052000000D189E1112399438C46802362469B009B
:105210001A40100062461A4200D023E180236446FF
:105220005B001C401A4200D032E263465B0600D5A8
:105230006BE163460A991B0600D4DBE208C91BB286
:10524000DA179818504080B20A91DA0F0C92002BAE
:1052500000D118E280460EAA91461F234B441395B5
:10526000E14645461297B0461E0001E0202C0FD0C3
:1052700028000A2100F0ACFB0134371930313970B5
:1052800028000A2100F0A4FB2F000500092FEDD80B
:105290004646CC46129F139D634606930B9B05978B
:1052A00004930A2303930C9B029316AB2A000194E8
:1052B000009351465B460998FFF742F8741C0500BD
:1052C0007BE5202319436CE680231B01194338E654
:1052D000782800D07CE180230A00DB001A40914648
:1052E000194200D1A5E20D239943080003330C9322
:1052F000802302009B001A409046184200D078E1BB
:10530000802304005B001C40184200D007E24306E3
:1053100000D453E2FF210A9B04CB0A4090460A9333
:105320004346002B00D026E1103398434B46002B18
:1053300000D120E100240B9B069004930C9B059761
:1053400003930023B0E780231B0119432023194353
:10535000F7E55B1B99460C9B099C98465B46B34658
:105360005646BA461F002A003B003100A0474B4674
:105370000135585D0028F6D143460C933B00574653
:10538000B2465E469B46E4E6C023B0781943023637
:105390005AE5C0239B00B0781943023654E55646BF
:1053A000BA464746D5E6012F00D832E26B1E984632
:1053B000B8442C00A9464546B8465746B246099E11
:1053C00022005B46013439002020B047AC42F7D1BF
:1053D0000A9B564601CBBA464746984622005B4692
:1053E000099C5146C0B2A0474D464346ED190A9369
:1053F000741CE2E40C9BA8469F4200D8ADE64446EC
:10540000B04656467D19099FED1A22005B460134CD
:1054100031002020B847AC42F7D1B24646469CE660
:105420000C98874200D8F0E1424698467919B9466F
:105430005746B246099E0C1A0C922A005B4601356B
:1054400039002020B047A542F7D15646BA464F460C
:1054500043460C9A90467A1C0C921A78101E00D083
:1054600057E67AE60822072191460A9B07338B43C9
:1054700099444A460ACB0C000A921C43DA0F002CCE
:105480004ED0D817040010904C4011900E941098F4
:1054900011990C005C400F940E9B0F9C1B1A8C41C1
:1054A0000E930F940EA988461F230024434412979D
:1054B000B046270013951E000E9C0F9DE1460C92EE
:1054C00001E0202F10D0200029000A22002300F044
:1054D000C1FA013730322B00F2550D0022000400D2
:1054E000002BEED1092AECD84646CC460E940F95F7
:1054F0000C9A3C00139D129F634606930B9B0597E5
:1055000004930A2302920393CFE6FF230A9904C966
:10551000134018000A9198E6102399438C4674E6CC
:1055200043460024002BE7D1002300240E930F9460
:10553000B8E743464D460A93741C3EE480230A00B4
:10554000DB001A409146194200D140E10D239943F6
:105550000B3B08000C93CBE680230A00DB001A40CB
:105560009146194200D162E10D2320209943033373
:1055700008430C93BCE66123810600D541230EA9A4
:105580001F228C46DBB262440A3B13971495814676
:1055900045460C9FB0461293160008E03033DBB24C
:1055A00001343355BD420ED3202C0CD005003900F8
:1055B000280000F00DFACBB20929EFD9129A9446CF
:1055C0006344DBB2ECE746464846139F149DB2E6BF
:1055D0006F2800D03CE10C230800984380230A0088
:1055E000DB001A409146194200D02AE108230C93AF
:1055F0007EE60A99FA3BFF3B0731994301339C460B
:105600008C4463464A680A930B6890469C46134351
:10561000191E06D14B46103100248843002B00D0C0
:1056200089E66121830600D541210EAA91461F23F8
:105630004B449946C9B20C9B0A3913971495159699
:1056400045464E46002467469846814612910CE036
:105650003032D2B2002301343255AB4200D1BCE02B
:10566000202C00D1BCE007000D004246002338008A
:10567000290000F0EFF9D2B2092AE9D9129B9C4621
:105680006244D2B2E6E74346002B00D004E6E2E5EE
:105690000A9C08CCDA0F1392002B00D1A5E0D91791
:1056A0005B184B4098460EAA91461F234B440C951D
:1056B000A14645461296E04606001C000A9701E006
:1056C000202E0FD028000A2100F082F90136A719F8
:1056D0003031397028000A2100F07AF92F000500D6
:1056E000092FEDD8C4464C4630000A9F0C9D129EEF
:1056F000634606930B9B2A0004930A230393139B90
:105700000190029316AB009351465B4609980597AA
:10571000FEF716FE0A940500741CFFF74EFB0A9B69
:1057200010CB1493002C04D1102398434B46002B2C
:105730002CD16123810600D541230EA91F228C465E
:10574000DBB262440A3B12971395814645460C9F93
:10575000B0460A93160008E03033DBB201357355CA
:10576000BC420ED3202D0CD004003900200000F0E4
:105770002FF9CBB20929EFD90A9A94466344DBB2D8
:10578000ECE748464646129FA846139D0B9B2A000D
:1057900004930C9B069003930023029343460193CA
:1057A00016AB009351465B4609980597FEF7C8FD76
:1057B000149B05000A93741CFFF7FFFA03061FD51C
:1057C0000A9B02CB09040A0C90460A93A8E50C2315
:1057D00099430A3B08000C938AE5B84500D83FE797
:1057E0004846139F149D159EA5E54346002B00D007
:1057F0007EE758E708C9DA17981850400A9124E55F
:105800000A9B04CB90460A938AE5010001310C9172
:1058100024E60A9F6C1C01CF2A005B46099D514675
:10582000C0B2A84725000A97741CFFF7C6FA2023C8
:1058300019430C23994300239946103308000C9315
:1058400056E508238C460C930D23604698434FE59C
:1058500010230A009A439446692808D180230A003D
:10586000DB001A409046194200D1CEE4CAE41C2362
:105870000800984380230A00DB001A409146194231
:1058800002D10A230C9333E50A230C93DCE7C046CC
:105890000EB4012230B584B007AC08CC064D01002F
:1058A0000094280052420394FFF760FA04B030BC21
:1058B00008BC03B01847C046A542001000B585B02B
:1058C0000391012102900093034813004A4202A968
:1058D000FFF74CFA05B000BD4545001010B5094A68
:1058E0000300146884B0002C08D0012200910648FF
:1058F000524203A9A047012004B010BD01F020FDD1
:105900000020F9E7882D00203545001001480421CA
:10591000014B1847200500203D590010142310B5F5
:105920000100188804331B88984710BD162310B552
:105930000100188802331B88984710BDF8B5474608
:10594000CE4680B50F1E19D01423994604330400A7
:105950000025012698464B461888434621681B8837
:10596000984701C4431E9841013540420640AF426A
:10597000F1D13000C0BCB946B046F8BD0126F8E709
:10598000124A936F9B0815D29066D166002905D004
:10599000FFE7FFE7FFE7516F106F704704B5802105
:1059A0000906C2175140002800D0C84309F030FD55
:1059B000002104BDF0B5146E556E576F166FFFF7DA
:1059C000E3FF1466556657671667F0BD000000D008
:1059D000114A936F9B0813D210665166002905D0B7
:1059E000FFE7FFE7FFE7516F106F704704B500282E
:1059F00001D00020C04309F00BFD002104BDC046CA
:105A0000F0B5146E556E576F166FFFF7E5FF14660D
:105A1000556657671667F0BD000000D094464E4AA1
:105A2000926F9208624601D230E0C046F0B54A4E0D
:105A3000B56F6D08FCD3346E756E776F366F00F0FE
:105A400025F89446444A14665566576716676246B9
:105A5000F0BDC0469446404A926F9208624601D219
:105A600058E0C046F0B53C4EB56F6D08FCD3346EBF
:105A7000756E776F366F00F04DF89446364A1466AF
:105A80005566576716676246F0BDC046002B24DB9B
:105A900011D000293EDA00B5C943404200D101319E
:105AA00000F038F8C943404200D10131DB43524293
:105AB00000D1013300BD002AEBD1002801D100291B
:105AC00005D00020C90FC90701D1C043410800B566
:105AD00009F08EFC0022002300BD00B500290ADB7E
